{
  "contractName": "Auction",
  "abi": [
    {
      "inputs": [],
      "stateMutability": "nonpayable",
      "type": "constructor"
    },
    {
      "anonymous": false,
      "inputs": [
        {
          "components": [
            {
              "internalType": "string",
              "name": "name",
              "type": "string"
            },
            {
              "internalType": "uint256",
              "name": "minPrice",
              "type": "uint256"
            },
            {
              "internalType": "address payable",
              "name": "seller",
              "type": "address"
            },
            {
              "internalType": "uint256",
              "name": "bidAmount",
              "type": "uint256"
            },
            {
              "internalType": "address payable",
              "name": "bidder",
              "type": "address"
            },
            {
              "internalType": "uint256",
              "name": "endTime",
              "type": "uint256"
            },
            {
              "internalType": "bool",
              "name": "sold",
              "type": "bool"
            }
          ],
          "indexed": false,
          "internalType": "struct Auction.Product",
          "name": "",
          "type": "tuple"
        }
      ],
      "name": "ProductEvent",
      "type": "event"
    },
    {
      "inputs": [],
      "name": "productCount",
      "outputs": [
        {
          "internalType": "uint256",
          "name": "",
          "type": "uint256"
        }
      ],
      "stateMutability": "view",
      "type": "function",
      "constant": true
    },
    {
      "inputs": [
        {
          "internalType": "uint256",
          "name": "",
          "type": "uint256"
        }
      ],
      "name": "products",
      "outputs": [
        {
          "internalType": "string",
          "name": "name",
          "type": "string"
        },
        {
          "internalType": "uint256",
          "name": "minPrice",
          "type": "uint256"
        },
        {
          "internalType": "address payable",
          "name": "seller",
          "type": "address"
        },
        {
          "internalType": "uint256",
          "name": "bidAmount",
          "type": "uint256"
        },
        {
          "internalType": "address payable",
          "name": "bidder",
          "type": "address"
        },
        {
          "internalType": "uint256",
          "name": "endTime",
          "type": "uint256"
        },
        {
          "internalType": "bool",
          "name": "sold",
          "type": "bool"
        }
      ],
      "stateMutability": "view",
      "type": "function",
      "constant": true
    },
    {
      "inputs": [
        {
          "internalType": "string",
          "name": "_name",
          "type": "string"
        },
        {
          "internalType": "uint256",
          "name": "_minPrice",
          "type": "uint256"
        },
        {
          "internalType": "uint256",
          "name": "_endTime",
          "type": "uint256"
        }
      ],
      "name": "addProduct",
      "outputs": [],
      "stateMutability": "nonpayable",
      "type": "function"
    },
    {
      "inputs": [],
      "name": "addProduct",
      "outputs": [],
      "stateMutability": "nonpayable",
      "type": "function"
    },
    {
      "inputs": [
        {
          "internalType": "uint256",
          "name": "_productId",
          "type": "uint256"
        }
      ],
      "name": "claimProduct",
      "outputs": [],
      "stateMutability": "nonpayable",
      "type": "function"
    },
    {
      "inputs": [
        {
          "internalType": "uint256",
          "name": "_productId",
          "type": "uint256"
        }
      ],
      "name": "bid",
      "outputs": [],
      "stateMutability": "payable",
      "type": "function",
      "payable": true
    },
    {
      "inputs": [],
      "name": "getProducts",
      "outputs": [
        {
          "components": [
            {
              "internalType": "string",
              "name": "name",
              "type": "string"
            },
            {
              "internalType": "uint256",
              "name": "minPrice",
              "type": "uint256"
            },
            {
              "internalType": "address payable",
              "name": "seller",
              "type": "address"
            },
            {
              "internalType": "uint256",
              "name": "bidAmount",
              "type": "uint256"
            },
            {
              "internalType": "address payable",
              "name": "bidder",
              "type": "address"
            },
            {
              "internalType": "uint256",
              "name": "endTime",
              "type": "uint256"
            },
            {
              "internalType": "bool",
              "name": "sold",
              "type": "bool"
            }
          ],
          "internalType": "struct Auction.Product[]",
          "name": "",
          "type": "tuple[]"
        }
      ],
      "stateMutability": "view",
      "type": "function",
      "constant": true
    }
  ],
  "bytecode": "0x608060405234801561001057600080fd5b50611d1a806100206000396000f3fe6080604052600436106100705760003560e01c8063bb1ab0f51161004e578063bb1ab0f5146100fd578063c29b2f2014610126578063c4b6824a14610151578063e0f6ef871461016857610070565b8063125b0b3414610075578063454a2ab31461009e5780637acc0b20146100ba575b600080fd5b34801561008157600080fd5b5061009c60048036038101906100979190610f3d565b610193565b005b6100b860048036038101906100b39190610fa4565b6103d5565b005b3480156100c657600080fd5b506100e160048036038101906100dc9190610fa4565b610656565b6040516100f497969594939291906114f3565b60405180910390f35b34801561010957600080fd5b50610124600480360381019061011f9190610fa4565b61076d565b005b34801561013257600080fd5b5061013b610923565b60405161014891906114d1565b60405180910390f35b34801561015d57600080fd5b50610166610bae565b005b34801561017457600080fd5b5061017d610dac565b60405161018a91906116ad565b60405180910390f35b600082116101d6576040517f08c379a00000000000000000000000000000000000000000000000000000000081526004016101cd90611629565b60405180910390fd5b804210610218576040517f08c379a000000000000000000000000000000000000000000000000000000000815260040161020f906115c9565b60405180910390fd5b60008081548092919061022a90611961565b919050555060006040518060e001604052808581526020018481526020013373ffffffffffffffffffffffffffffffffffffffff16815260200160008152602001600073ffffffffffffffffffffffffffffffffffffffff16815260200183815260200160001515815250905080600160008054815260200190815260200160002060008201518160000190805190602001906102c8929190610db2565b506020820151816001015560408201518160020160006101000a81548173ffffffffffffffffffffffffffffffffffffffff021916908373ffffffffffffffffffffffffffffffffffffffff1602179055506060820151816003015560808201518160040160006101000a81548173ffffffffffffffffffffffffffffffffffffffff021916908373ffffffffffffffffffffffffffffffffffffffff16021790555060a0820151816005015560c08201518160060160006101000a81548160ff0219169083151502179055509050507f87be38a2e478954aabd0173be2fe208e6cdfc6105e3b37961d522cf95a6ade05816040516103c79190611669565b60405180910390a150505050565b600060016000838152602001908152602001600020905080600501544210610432576040517f08c379a000000000000000000000000000000000000000000000000000000000815260040161042990611609565b60405180910390fd5b8060010154341015610479576040517f08c379a0000000000000000000000000000000000000000000000000000000008152600401610470906115a9565b60405180910390fd5b8060040160009054906101000a900473ffffffffffffffffffffffffffffffffffffffff1673ffffffffffffffffffffffffffffffffffffffff163373ffffffffffffffffffffffffffffffffffffffff16141561050c576040517f08c379a0000000000000000000000000000000000000000000000000000000008152600401610503906115e9565b60405180910390fd5b80600301543411610552576040517f08c379a000000000000000000000000000000000000000000000000000000000815260040161054990611589565b60405180910390fd5b6000816003015411156105cf578060040160009054906101000a900473ffffffffffffffffffffffffffffffffffffffff1673ffffffffffffffffffffffffffffffffffffffff166108fc82600301549081150290604051600060405180830381858888f193505050501580156105cd573d6000803e3d6000fd5b505b338160040160006101000a81548173ffffffffffffffffffffffffffffffffffffffff021916908373ffffffffffffffffffffffffffffffffffffffff1602179055503481600301819055507f87be38a2e478954aabd0173be2fe208e6cdfc6105e3b37961d522cf95a6ade058160405161064a919061168b565b60405180910390a15050565b6001602052806000526040600020600091509050806000018054610679906118b0565b80601f01602080910402602001604051908101604052809291908181526020018280546106a5906118b0565b80156106f25780601f106106c7576101008083540402835291602001916106f2565b820191906000526020600020905b8154815290600101906020018083116106d557829003601f168201915b5050505050908060010154908060020160009054906101000a900473ffffffffffffffffffffffffffffffffffffffff16908060030154908060040160009054906101000a900473ffffffffffffffffffffffffffffffffffffffff16908060050154908060060160009054906101000a900460ff16905087565b6000600160008381526020019081526020016000209050428160050154106107ca576040517f08c379a00000000000000000000000000000000000000000000000000000000081526004016107c190611649565b60405180910390fd5b8060040160009054906101000a900473ffffffffffffffffffffffffffffffffffffffff1673ffffffffffffffffffffffffffffffffffffffff163373ffffffffffffffffffffffffffffffffffffffff161461085c576040517f08c379a000000000000000000000000000000000000000000000000000000000815260040161085390611569565b60405180910390fd5b8060020160009054906101000a900473ffffffffffffffffffffffffffffffffffffffff1673ffffffffffffffffffffffffffffffffffffffff166108fc82600301549081150290604051600060405180830381858888f193505050501580156108ca573d6000803e3d6000fd5b5060018160060160006101000a81548160ff0219169083151502179055507f87be38a2e478954aabd0173be2fe208e6cdfc6105e3b37961d522cf95a6ade0581604051610917919061168b565b60405180910390a15050565b60606000805467ffffffffffffffff811115610968577f4e487b7100000000000000000000000000000000000000000000000000000000600052604160045260246000fd5b6040519080825280602002602001820160405280156109a157816020015b61098e610e38565b8152602001906001900390816109865790505b5090506000600190505b6000548111610ba6576000600160008381526020019081526020016000206040518060e00160405290816000820180546109e4906118b0565b80601f0160208091040260200160405190810160405280929190818152602001828054610a10906118b0565b8015610a5d5780601f10610a3257610100808354040283529160200191610a5d565b820191906000526020600020905b815481529060010190602001808311610a4057829003601f168201915b50505050508152602001600182015481526020016002820160009054906101000a900473ffffffffffffffffffffffffffffffffffffffff1673ffffffffffffffffffffffffffffffffffffffff1673ffffffffffffffffffffffffffffffffffffffff168152602001600382015481526020016004820160009054906101000a900473ffffffffffffffffffffffffffffffffffffffff1673ffffffffffffffffffffffffffffffffffffffff1673ffffffffffffffffffffffffffffffffffffffff168152602001600582015481526020016006820160009054906101000a900460ff161515151581525050905080838381518110610b87577f4e487b7100000000000000000000000000000000000000000000000000000000600052603260045260246000fd5b6020026020010181905250508080610b9e90611961565b9150506109ab565b508091505090565b600080815480929190610bc090611961565b919050555060006040518060e001604052806040518060400160405280600781526020017f4d7920736f756c000000000000000000000000000000000000000000000000008152508152602001606481526020013373ffffffffffffffffffffffffffffffffffffffff16815260200160008152602001600073ffffffffffffffffffffffffffffffffffffffff1681526020016298968042610c639190611799565b81526020016000151581525090508060016000805481526020019081526020016000206000820151816000019080519060200190610ca2929190610db2565b506020820151816001015560408201518160020160006101000a81548173ffffffffffffffffffffffffffffffffffffffff021916908373ffffffffffffffffffffffffffffffffffffffff1602179055506060820151816003015560808201518160040160006101000a81548173ffffffffffffffffffffffffffffffffffffffff021916908373ffffffffffffffffffffffffffffffffffffffff16021790555060a0820151816005015560c08201518160060160006101000a81548160ff0219169083151502179055509050507f87be38a2e478954aabd0173be2fe208e6cdfc6105e3b37961d522cf95a6ade0581604051610da19190611669565b60405180910390a150565b60005481565b828054610dbe906118b0565b90600052602060002090601f016020900481019282610de05760008555610e27565b82601f10610df957805160ff1916838001178555610e27565b82800160010185558215610e27579182015b82811115610e26578251825591602001919060010190610e0b565b5b509050610e349190610ea3565b5090565b6040518060e001604052806060815260200160008152602001600073ffffffffffffffffffffffffffffffffffffffff16815260200160008152602001600073ffffffffffffffffffffffffffffffffffffffff168152602001600081526020016000151581525090565b5b80821115610ebc576000816000905550600101610ea4565b5090565b6000610ed3610ece846116ed565b6116c8565b905082815260208101848484011115610eeb57600080fd5b610ef684828561186e565b509392505050565b600082601f830112610f0f57600080fd5b8135610f1f848260208601610ec0565b91505092915050565b600081359050610f3781611ccd565b92915050565b600080600060608486031215610f5257600080fd5b600084013567ffffffffffffffff811115610f6c57600080fd5b610f7886828701610efe565b9350506020610f8986828701610f28565b9250506040610f9a86828701610f28565b9150509250925092565b600060208284031215610fb657600080fd5b6000610fc484828501610f28565b91505092915050565b6000610fd9838361129c565b905092915050565b610fea81611826565b82525050565b610ff981611826565b82525050565b600061100a82611743565b6110148185611766565b9350836020820285016110268561171e565b8060005b8581101561106257848403895281516110438582610fcd565b945061104e83611759565b925060208a0199505060018101905061102a565b50829750879550505050505092915050565b61107d81611838565b82525050565b61108c81611838565b82525050565b600061109d8261174e565b6110a78185611777565b93506110b781856020860161187d565b6110c081611a37565b840191505092915050565b60006110d68261174e565b6110e08185611788565b93506110f081856020860161187d565b6110f981611a37565b840191505092915050565b60008154611111816118b0565b61111b8186611777565b9450600182166000811461113657600181146111485761117b565b60ff198316865260208601935061117b565b6111518561172e565b60005b8381101561117357815481890152600182019150602081019050611154565b808801955050505b50505092915050565b6000611191602a83611788565b915061119c82611a55565b604082019050919050565b60006111b4602783611788565b91506111bf82611aa4565b604082019050919050565b60006111d7603283611788565b91506111e282611af3565b604082019050919050565b60006111fa602483611788565b915061120582611b42565b604082019050919050565b600061121d602183611788565b915061122882611b91565b604082019050919050565b6000611240602183611788565b915061124b82611be0565b604082019050919050565b6000611263603083611788565b915061126e82611c2f565b604082019050919050565b6000611286602383611788565b915061129182611c7e565b604082019050919050565b600060e08301600083015184820360008601526112b98282611092565b91505060208301516112ce60208601826114b3565b5060408301516112e16040860182610fe1565b5060608301516112f460608601826114b3565b5060808301516113076080860182610fe1565b5060a083015161131a60a08601826114b3565b5060c083015161132d60c0860182611074565b508091505092915050565b600060e08301600083015184820360008601526113558282611092565b915050602083015161136a60208601826114b3565b50604083015161137d6040860182610fe1565b50606083015161139060608601826114b3565b5060808301516113a36080860182610fe1565b5060a08301516113b660a08601826114b3565b5060c08301516113c960c0860182611074565b508091505092915050565b600060e08301600080840185830360008701526113f18382611104565b9250506001840154905061140481611916565b61141160208701826114b3565b5060028401549050611422816118e2565b61142f6040870182610fe1565b506003840154905061144081611916565b61144d60608701826114b3565b506004840154905061145e816118e2565b61146b6080870182610fe1565b506005840154905061147c81611916565b61148960a08701826114b3565b506006840154905061149a816118fc565b6114a760c0870182611074565b50819250505092915050565b6114bc81611864565b82525050565b6114cb81611864565b82525050565b600060208201905081810360008301526114eb8184610fff565b905092915050565b600060e082019050818103600083015261150d818a6110cb565b905061151c60208301896114c2565b6115296040830188610ff0565b61153660608301876114c2565b6115436080830186610ff0565b61155060a08301856114c2565b61155d60c0830184611083565b98975050505050505050565b6000602082019050818103600083015261158281611184565b9050919050565b600060208201905081810360008301526115a2816111a7565b9050919050565b600060208201905081810360008301526115c2816111ca565b9050919050565b600060208201905081810360008301526115e2816111ed565b9050919050565b6000602082019050818103600083015261160281611210565b9050919050565b6000602082019050818103600083015261162281611233565b9050919050565b6000602082019050818103600083015261164281611256565b9050919050565b6000602082019050818103600083015261166281611279565b9050919050565b600060208201905081810360008301526116838184611338565b905092915050565b600060208201905081810360008301526116a581846113d4565b905092915050565b60006020820190506116c260008301846114c2565b92915050565b60006116d26116e3565b90506116de8282611930565b919050565b6000604051905090565b600067ffffffffffffffff82111561170857611707611a08565b5b61171182611a37565b9050602081019050919050565b6000819050602082019050919050565b60008190508160005260206000209050919050565b600081519050919050565b600081519050919050565b6000602082019050919050565b600082825260208201905092915050565b600082825260208201905092915050565b600082825260208201905092915050565b60006117a482611864565b91506117af83611864565b9250827fffffffffffffffffffffffffffffffffffffffffffffffffffffffffffffffff038211156117e4576117e36119aa565b5b828201905092915050565b600073ffffffffffffffffffffffffffffffffffffffff82169050919050565b600060ff82169050919050565b6000819050919050565b600061183182611844565b9050919050565b60008115159050919050565b600073ffffffffffffffffffffffffffffffffffffffff82169050919050565b6000819050919050565b82818337600083830152505050565b60005b8381101561189b578082015181840152602081019050611880565b838111156118aa576000848401525b50505050565b600060028204905060018216806118c857607f821691505b602082108114156118dc576118db6119d9565b5b50919050565b60006118f56118f083611a48565b6117ef565b9050919050565b600061190f61190a83611a48565b61180f565b9050919050565b600061192961192483611a48565b61181c565b9050919050565b61193982611a37565b810181811067ffffffffffffffff8211171561195857611957611a08565b5b80604052505050565b600061196c82611864565b91507fffffffffffffffffffffffffffffffffffffffffffffffffffffffffffffffff82141561199f5761199e6119aa565b5b600182019050919050565b7f4e487b7100000000000000000000000000000000000000000000000000000000600052601160045260246000fd5b7f4e487b7100000000000000000000000000000000000000000000000000000000600052602260045260246000fd5b7f4e487b7100000000000000000000000000000000000000000000000000000000600052604160045260246000fd5b6000601f19601f8301169050919050565b60008160001c9050919050565b7f796f7520617265206e6f7420656c696769626c6520746f20636c61696d20746860008201527f69732070726f6475637400000000000000000000000000000000000000000000602082015250565b7f6269672076616c7565206e6f742067726561746572207468616e20707265766960008201527f6f75732062696400000000000000000000000000000000000000000000000000602082015250565b7f6269642076616c75652073686f756c646e2774206265206c657373207468616e60008201527f2074686520726573657276652076616c75650000000000000000000000000000602082015250565b7f61756374696f6e20656e642074696d652073686f756c6420626520696e20667560008201527f7475726500000000000000000000000000000000000000000000000000000000602082015250565b7f6269646465722063616e2774206f757420736f207468656972206f776e20626960008201527f6400000000000000000000000000000000000000000000000000000000000000602082015250565b7f70726f647563742061756374696f6e2068617320616c726561647920656e646560008201527f6400000000000000000000000000000000000000000000000000000000000000602082015250565b7f6d696e696d756d2070726963652073686f756c64206265206120706f7369746960008201527f766520696e74656765722076616c756500000000000000000000000000000000602082015250565b7f62696464696e6720666f722070726f64756374206973206e6f74206f7665722060008201527f7965740000000000000000000000000000000000000000000000000000000000602082015250565b611cd681611864565b8114611ce157600080fd5b5056fea26469706673582212206a20094f52db38f46ee97ad977cc5514cf2b7b25d8a38c282f0dcf98684160a864736f6c63430008040033",
  "immutableReferences": {},
  "source": "pragma solidity ^0.8.4;\n\ncontract Auction{\n    uint public productCount;\n    struct Product{\n        string name;\n        uint minPrice;\n        address payable seller;\n        uint bidAmount;\n        address payable bidder;\n        uint endTime;\n        bool sold;\n    }\n    mapping(uint => Product) public products;\n    \n    event ProductEvent (Product);\n    \n    constructor(){\n        \n    }\n    \n    function addProduct() public{\n        productCount++;\n        Product memory product = Product(\"My soul\",100,payable(msg.sender),0,payable(address(0)),block.timestamp+10000000,false);\n        products[productCount] = product;\n        emit ProductEvent(product);\n    }\n    \n    function addProduct(string memory _name,uint _minPrice,uint _endTime) public{\n        require(_minPrice>0,\"minimum price should be a positive integer value\");\n        require(block.timestamp<_endTime,\"auction end time should be in future\");\n        productCount++;\n        Product memory product = Product(_name,_minPrice,payable(msg.sender),0,payable(0),_endTime,false);\n        products[productCount] = product;\n        emit ProductEvent(product);\n    }\n    \n    function claimProduct(uint _productId) public{\n        // follow these checks\n        Product storage product = products[_productId];\n        // bidding time must be over\n        require(product.endTime < block.timestamp,\"bidding for product is not over yet\");\n        // claimer must be bidder\n        require(msg.sender == product.bidder,\"you are not eligible to claim this product\");\n        \n        // money sent to seller\n        product.seller.transfer(product.bidAmount);\n        \n        // set product status sold to true\n        product.sold = true;\n        \n        emit ProductEvent(product);\n        \n    }\n    \n    function bid(uint _productId) payable public{\n        Product storage product = products[_productId];\n        \n        // follow these checks\n        \n        // time should be lesser than last \n        require(block.timestamp<product.endTime,\"product auction has already ended\");\n        \n        // bid should be greater than minPrice\n        require(msg.value>=product.minPrice,\"bid value shouldn't be less than the reserve value\");\n        \n        // you should not be the last bidder , no point in outdoing your own bid\n        require(msg.sender != product.bidder,\"bidder can't out so their own bid\");\n        \n        // the incoming value should be greater than previous bid\n        require(msg.value > product.bidAmount,\"big value not greater than previous bid\"); \n        \n        // refund older money to last bidder\n        if(product.bidAmount>0){\n            product.bidder.transfer(product.bidAmount);\n        }\n        \n        \n        // new bidder should be set as bidder\n        product.bidder = payable(msg.sender);\n        \n        //change bid amount to new value\n        product.bidAmount = msg.value;\n        emit ProductEvent(product);\n    }\n\n    function getProducts() public view returns (Product[] memory){\n        Product[] memory temp = new Product[](productCount);\n        for(uint i=1;i<=productCount;i++){\n            Product memory product = products[i];\n            temp[i] = product;\n        }\n        return temp;\n    }\n}\n",
  "sourcePath": "/Users/vaibhavchopra/code/auction/blockchain/contracts/Auction.sol",
  "compiler": {
    "name": "solc",
    "version": "0.8.4+commit.c7e474f2.Emscripten.clang"
  },
  "schemaVersion": "3.4.1",
  "updatedAt": "2021-05-23T21:37:34.450Z",
  "networkType": "ethereum",
  "devdoc": {
    "kind": "dev",
    "methods": {},
    "version": 1
  },
  "userdoc": {
    "kind": "user",
    "methods": {},
    "version": 1
  }
}